{
  "contractName": "Voting",
  "abi": [
    {
      "constant": true,
      "inputs": [
        {
          "name": "",
          "type": "uint256"
        }
      ],
      "name": "candidateList",
      "outputs": [
        {
          "name": "",
          "type": "bytes32"
        }
      ],
      "payable": false,
      "stateMutability": "view",
      "type": "function"
    },
    {
      "inputs": [
        {
          "name": "candidateNames",
          "type": "bytes32[]"
        }
      ],
      "payable": false,
      "stateMutability": "nonpayable",
      "type": "constructor"
    },
    {
      "constant": true,
      "inputs": [
        {
          "name": "candidate",
          "type": "bytes32"
        }
      ],
      "name": "totalVotesFor",
      "outputs": [
        {
          "name": "",
          "type": "uint256"
        }
      ],
      "payable": false,
      "stateMutability": "view",
      "type": "function"
    },
    {
      "constant": false,
      "inputs": [
        {
          "name": "candidate",
          "type": "bytes32"
        }
      ],
      "name": "votingForCandidate",
      "outputs": [],
      "payable": false,
      "stateMutability": "nonpayable",
      "type": "function"
    },
    {
      "constant": true,
      "inputs": [
        {
          "name": "candidate",
          "type": "bytes32"
        }
      ],
      "name": "validCandidate",
      "outputs": [
        {
          "name": "",
          "type": "bool"
        }
      ],
      "payable": false,
      "stateMutability": "view",
      "type": "function"
    }
  ],
  "bytecode": "0x608060405234801561001057600080fd5b5060405161041f38038061041f8339810180604052602081101561003357600080fd5b81019080805164010000000081111561004b57600080fd5b8281019050602081018481111561006157600080fd5b815185602082028301116401000000008211171561007e57600080fd5b505092919050505060008090505b81518110156100b95781600090805190602001906100ab9291906100c0565b50808060010191505061008c565b5050610132565b8280548282559060005260206000209081019282156100fc579160200282015b828111156100fb5782518255916020019190600101906100e0565b5b509050610109919061010d565b5090565b61012f91905b8082111561012b576000816000905550600101610113565b5090565b90565b6102de806101416000396000f3fe608060405260043610610062576000357c0100000000000000000000000000000000000000000000000000000000900463ffffffff1680632f265cf714610067578063392e6678146100b6578063b13c744b14610109578063bc75895f14610158575b600080fd5b34801561007357600080fd5b506100a06004803603602081101561008a57600080fd5b8101908080359060200190929190505050610193565b6040518082815260200191505060405180910390f35b3480156100c257600080fd5b506100ef600480360360208110156100d957600080fd5b81019080803590602001909291905050506101db565b604051808215151515815260200191505060405180910390f35b34801561011557600080fd5b506101426004803603602081101561012c57600080fd5b8101908080359060200190929190505050610233565b6040518082815260200191505060405180910390f35b34801561016457600080fd5b506101916004803603602081101561017b57600080fd5b8101908080359060200190929190505050610256565b005b6000600115156101a2836101db565b15151415156101b057600080fd5b6001600083815260200190815260200160002060009054906101000a900460ff1660ff169050919050565b600080600090505b600080549050811015610228578260008281548110151561020057fe5b9060005260206000200154141561021b57600191505061022e565b80806001019150506101e3565b50600090505b919050565b60008181548110151561024257fe5b906000526020600020016000915090505481565b60011515610263826101db565b151514151561027157600080fd5b600180600083815260200190815260200160002060008282829054906101000a900460ff160192506101000a81548160ff021916908360ff1602179055505056fea165627a7a72305820a04182cf619e6e0c14cf4e4d86e48c969fcc51e157719f0657cb0e7ffa3a99710029",
  "source": "pragma solidity >=0.4.21 <0.6.0;\n\ncontract Voting {\n\n    // [\"zhangsan\", \"lisi\", \"wangwu\", \"canglaoshi\"]\n    // [\"0x7a68616e6773616e\", \"0x6c697369\", \"0x77616e677775\", \"0x63616e676c616f736869\"]\n\n    bytes32[] public candidateList;\n    mapping (bytes32 => uint8) votesReceived;\n\n    // 构造函数 初始化候选人名单\n    constructor(bytes32[] memory candidateNames) public {\n        for(uint i=0; i<candidateNames.length; i++) {\n            candidateList = candidateNames;\n        }\n    }\n\n    // 查询某某选人的总票数\n    function totalVotesFor(bytes32 candidate) view public returns (uint) {\n        require(validCandidate(candidate) == true);\n        return votesReceived[candidate];\n    }\n\n    // 为某候选人投票\n    function votingForCandidate(bytes32 candidate) public {\n        require(validCandidate(candidate) == true);\n        votesReceived[candidate] += 1;\n    }\n\n    // 检查候选人名字是否有效\n    function validCandidate(bytes32 candidate) view public returns (bool) {\n        for (uint i=0; i<candidateList.length; i++) {\n            if (candidateList[i] == candidate) {\n                return true;\n            }\n        }\n        return false;\n    }\n}\n",
  "sourcePath": "/Users/xliu/Documents/51CTO_Golang/learnGo/src/blockChainVoting/contracts/Voting.sol",
  "compiler": {
    "name": "solc",
    "version": "0.5.0+commit.1d4f565a.Emscripten.clang"
  },
  "schemaVersion": "3.0.1",
  "updatedAt": "2019-02-14T05:37:00.594Z",
  "devdoc": {
    "methods": {}
  },
  "userdoc": {
    "methods": {}
  }
}