{
  "contractName": "MathContract",
  "abi": [
    {
      "constant": true,
      "inputs": [
        {
          "name": "a",
          "type": "uint256"
        },
        {
          "name": "b",
          "type": "uint256"
        }
      ],
      "name": "mulAToB",
      "outputs": [
        {
          "name": "",
          "type": "uint256"
        }
      ],
      "payable": false,
      "stateMutability": "pure",
      "type": "function",
      "signature": "0x7f239251"
    }
  ],
  "bytecode": "0x608060405234801561001057600080fd5b5060d28061001f6000396000f3fe608060405260043610603f576000357c0100000000000000000000000000000000000000000000000000000000900463ffffffff1680637f239251146044575b600080fd5b348015604f57600080fd5b50608360048036036040811015606457600080fd5b8101908080359060200190929190803590602001909291905050506099565b6040518082815260200191505060405180910390f35b600081830290509291505056fea165627a7a72305820fb746ab1ea33ee3455b314ed2ea8a3755f6d9ebccd279749becffe43377f307f0029",
  "source": "pragma solidity >=0.4.21 <0.6.0;\n\ncontract MathContract {\n    function mulAToB(uint a, uint b) pure public returns (uint) {\n        return a * b;\n    }\n}\n",
  "sourcePath": "/Users/xliu/Documents/51CTO_Golang/learnGo/src/truffleDemo/contracts/MathContract.sol",
  "compiler": {
    "name": "solc",
    "version": "0.5.0+commit.1d4f565a.Emscripten.clang"
  },
  "schemaVersion": "3.0.1",
  "updatedAt": "2019-02-13T08:54:56.464Z",
  "devdoc": {
    "methods": {}
  },
  "userdoc": {
    "methods": {}
  }
}